S020000049727269676174696F6E53656E736F724170706C5F4657322E73726563B7
S21402300000600020E9340200F93402004D77020025
S21402301000000000000000000000000000000000A9
S214023020000000000000000000000000F93402006A
S2140230300000000000000000F9340200F53503002D
S214023040F9340200F9340200F9340200F9340200BD
S214023050F9340200F9340200F9340200F9340200AD
S214023060CD760200BD760200F9340200F934020081
S214023070F9340200E92E0300F92E0300F9340200A7
S214023080F9340200DD760200F9340200F934020057
S214023090F9340200F9340200F9340200F93402006D
S2140230A0F93402004D780200F9340200F9340200C5
S2140230B0F9340200F9340200F9340200797702008A
S214023400FFFFFFFFFFFFFFFFFFFFFFFFFE3FFFFF86
S21402341010B5064C2378002B07D1054B002B02D0A3
S214023420044800E000BF0123237010BD14E5FF1F0F
S214023430000000008084030008B5084B002B03D070
S2140234400748084900E000BF07480368002B03D07E
S214023450064B002B00D0984708BDC046000000006F
S2140234608084030018E5FF1F10E5FF1F0000000020
S214023470164B002B00D1144B9D46402292029A1AFC
S214023480924600218B460F461348144A121A11F030
S214023490FAFD0F4B002B00D098470E4B002B00D0A6
S2140234A098470020002104000D000D48002802D095
S2140234B00C4800E000BF11F0B7FD2000290006F01E
S2140234C049FA11F09BFDC04600000800006000208B
S2140234D0000000000000000014E5FF1F84EDFF1F3F
S2140234E0000000000000000072B60FF09DFA0FF018
S2140234F0E3FA62B6FFF7BCFF0048004765770200B2
S214023500002934D00123002210B488422CD301248F
S2140235102407A14204D2814202D209011B01F8E724
S214023520E400A14204D2814202D249005B00F8E7DD
S214023530884201D3401A1A434C08A04202D3001B09
S2140235405C0822438C08A04202D3001B9C0822433C
S214023550CC08A04202D3001BDC082243002803D07A
S2140235601B0901D00909E3E7101C10BC70470028AC
S21402357001D00020C04307B4024802A140180290BE
S21402358003BDC046D90000000029F0D003B5FFF7FE
S214023590B9FF0EBC4243891A1847C046002941D0DB
S2140235A010B4041C4C40A44601230022002900D576
S2140235B04942002800D5404288422CD301242407E1
S2140235C0A14204D2814202D209011B01F8E7E400BB
S2140235D0A14204D2814202D249005B00F8E7884247
S2140235E001D3401A1A434C08A04202D3001B5C08BF
S2140235F022438C08A04202D3001B9C082243CC081C
S214023600A04202D3001BDC082243002803D01B0979
S21402361001D00909E3E7101C6446002C00D540429D
S21402362010BC7047002806D003DB0020C0434008C9
S21402363001E08020000607B4024802A1401802906A
S21402364003BDC046190000000029EBD003B5FFF702
S214023650A7FF0EBC4243891A1847C0467047C046A9
S2140236608446101C62468C46191C634600E0C0461F
S2140236701FB501F035FF002801D40021C8421FBD46
S21402368010B501F065FE4042013010BD10B501F0E4
S21402369027FF002801DB002010BD012010BDC04618
S2140236A010B501F01DFF002801DD002010BD01202D
S2140236B010BDC04610B501F095FE002801DC0020C2
S2140236C010BD012010BDC04610B501F08BFE0028CB
S2140236D001DA002010BD012010BDC0468446081C39
S2140236E06146FFE71FB500F035FC002801D4002133
S2140236F0C8421FBD10B500F0BBFB4042013010BDF2
S21402370010B500F027FC002801DB002010BD0120C8
S21402371010BDC04610B500F01DFC002801DD0020DB
S21402372010BD012010BDC04610B500F0CBFB00282E
S21402373001DC002010BD012010BDC04610B500F00F
S214023740C1FB002801DA002010BD012010BDC046D2
S214023750002B11D1002A0FD1002900D1002802D057
S2140237600021C943081C07B4024802A1401802906F
S21402377003BDC046E9FEFFFF03B4684601B50298E2
S21402378000F0CAF8019B9E4602B00CBC7047C046C9
S2140237909C460304F0B51B0C17043F0C150C1E1CAC
S2140237A0041C000C7E436B4347434543FB18300C16
S2140237B01818874202D980235B02ED18030CED1815
S2140237C063465C434A433604360CA118000480194B
S2140237D04919F0BD0000000038B50E4B0C4A041C17
S2140237E00D1CFFF771FF002804D1201C291C02F0D3
S2140237F0B9FC38BD074B064A201C291C02F07EF98C
S21402380002F0B0FC80231B06C018F2E7C046C04692
S214023810000000000000E04170B50E4B0C4A0D1C83
S214023820041C01F0DBFEFFF7D7FF061C02F00CFDBE
S214023830094A0A4B01F0D2FE021C0B1C201C291C52
S21402384002F05CF9FFF7C8FF311C70BDC046C046E7
S214023850000000000000F03D000000000000F04103
S214023860114B70B5061C994206D9430504D0C60A08
S214023870F302802636011E43081C02F0E5FC094BC3
S214023880074A01F0ABFE0D1C041C301C02F0DCFCE7
S2140238902B1C221C00F016FF02F05CFD70BDC04619
S2140238A0000000000000F041FFFF1F00C046C046B7
S2140238B070B5061C081C02F0C7FC084B064A01F04D
S2140238C08DFE0D1C041C301C02F0BEFC2B1C221CA0
S2140238D000F0F8FE70BDC046000000000000F04197
S2140238E0F0B583B0161C1F1C0090019102F0DCFD9F
S2140238F0041C0D1C221C2B1C301C391CFFF748FF15
S214023900009A019B121A8B410899201C0A604B6090
S214023910291C03B0F0BDC046F0B583B0141C1D1CB4
S2140239200090019102F09CFF221C2B1C061C0F1C0F
S214023930FFF72EFF009A019B121A8B410899301C42
S2140239400A604B60391C03B0F0BDC046F8B54302AE
S2140239504400C50F4E024800240E2A1C9B09000E86
S214023960C90FB6098D425BD0221A002A00DC89E014
S21402397000281DD1002E00D075E0580704D00F2273
S2140239801A40042A00D004338021C90419402A1C94
S21402399000293AD00134FF2C00D17FE09B015B0A5C
S2140239A05B02E4B2E405580AD20720431043F8BD8E
S2140239B0FF2CE2D08021C9040E431B2A00DD2DE134
S2140239C0311C2020D140821A9640721E96410E4328
S2140239D09B1B5801D1D59B019F09381C02F046FD5E
S2140239E0421F974094425BDC141B1F231B1B3A1C8E
S2140239F09F40611C3B1CCA405F1EBB411343002410
S214023A00BBE7131EB9D100230022DB08FF2C04D12A
S214023A10002B43D08020C00303435B025B0ABFE750
S214023A20211A002940DD002823D0FF2CA5D08020B3
S214023A30C00406431B2900DDEEE0301C2027C840E8
S214023A40791A8E40711E8E4106439B19590100D485
S214023A5093E70134FF2C55D0714901221A400B40DE
S214023A605B08134389E7013A002AB1D0FF2CA4D1A0
S214023A7083E7002E00D180E701390029E5D0FF2C2C
S214023A80D8D17AE7002A1BD1621CD2B2012A4BDDBA
S214023A909F1B7A0123D5F71A0D1C9EE700237FE7AA
S214023AA05F4BA41A3B4068E7002946D1611CC8B2A6
S214023AB0012829DDFF2924D0F3185B080C1C5CE7DB
S214023AC0002C13D0FF2818D08024E404524223434B
S214023AD01B2A4DDD0123F31A041C0D1C79E7002F67
S214023AE000D07AE70023002200248EE7002B3BD08A
S214023AF0D243002AEFD0FF28EAD1331CFF240D1C44
S214023B003BE7FF24002380E7002C5CD1002B00D18A
S214023B1080E0002E00D130E79B19580100D42CE734
S214023B203F4A0124134028E7002C15D1002B40D130
S214023B30002E63D0331C0D1C1FE7002C21D1002B56
S214023B4054D0C943002904D0FF284CD01B2958DD85
S214023B5001239B19041C79E7002B19D1002E48D0AB
S214023B60331C0D1CFF2408E7331C041C0D1C04E741
S214023B701C1C2025D440AA1A93405A1E9341234364
S214023B80A9E7FF282FD08024E40449422343DDE737
S214023B90FF24002E00D1F0E68022DB08D203134277
S214023BA004D0F608164201D1331C0D1CDB00FF249C
S214023BB0E3E6002E00D1E0E69A1B500100D420E78F
S214023BC0F31A0D1CD9E6002B0DD0FF24002E00D1CF
S214023BD0D3E68022DB08D2031342E7D0F608164269
S214023BE0E4D1331CE2E7331CFF24C6E6331C041C74
S214023BF0C3E6802300229B04FF2406E7231C002240
S214023C0003E71C1C2027CC40791A8B40591E8B4197
S214023C1023439EE7331CB0E6012616E70126D7E6C5
S214023C20FFFFFFFBF0B55F4656464D464446F0B4EE
S214023C3046024500C00F85B00F1C760A2D0E804640
S214023C4041D0FF2D26D08024240400212643F600EE
S214023C507F3D89468B46F90F7C027800640A000E87
S214023C6000918A463CD0FF2834D080231B041C4394
S214023C700023E4007F380193009F4346019A7B406D
S214023C8049469C4611430F2900D971E0764F8900B8
S214023C907F58BF46002E3ED10822022391469B46FD
S214023CA0D9E75A46341CC24601920199022937D0F6
S214023CB0032900D1CFE0012900D0ABE053460B40E8
S214023CC00022002632E0002E19D104210122894664
S214023CD09346C0E7221C531E9A4102320192CBE75A
S214023CE001270197002CC7D0201C02F0BFFB431F00
S214023CF09C4076235B420021181A0191BCE7301CD7
S214023D0002F0B4FB7625431F9E406D4200232D1A17
S214023D1099469B469FE70C23032199468B469AE7D2
S214023D20D446012367463B40FF2200267602D20590
S214023D30700ADB071043184305B03CBC9046994610
S214023D40A246AB46F0BD80260023F603FF22EDE72F
S214023D5000220026EAE78020C00306423BD0044247
S214023D6039D1061C26437602760A009BFF22DDE73F
S214023D70281A039076016401A64239D3361B1A220A
S214023D8001230120311C5B007600002901DBB442CE
S214023D9001D8361B0343013A002AF3DC741EA641FF
S214023DA0341C1C43039A7F32002A27DD630704D0A3
S214023DB00F232340042B00D00434270103D52B4BBA
S214023DC0039A1C408032FE2A0BDD012361460B401B
S214023DD0FF220026AAE706437602760A4346FF2219
S214023DE0A4E7A40101236746660AD2B23B409DE7D8
S214023DF0039F1B22013F03970023C2E77E23039FF4
S214023E005B42DB1B1B2B07DD012361460B400022B6
S214023E1000268BE7D446C5E7221CDA40039B9E3376
S214023E209C40231C5C1EA34113435A0704D00F2256
S214023E301A40042A00D004335F0105D501236146E7
S214023E400B400122002671E79E01624601231340C1
S214023E50760A00226AE78026F60326437602760A68
S214023E605346FF2262E7C046A47C0300FFFFFFF72B
S214023E704A02430270B55C0A550A43004A001B0E0A
S214023E80C60F120EC90FFF2B05D0FF2A08D001203D
S214023E9093420BD070BD0120002CFBD1FF2AF6D135
S214023EA00120002DF6D101209342F3D1AC42F1D18C
S214023EB08E4205D0002BEDD1201C441EA041E9E71E
S214023EC00020E7E74A024302F0B55C0A550A4300BF
S214023ED04A001B0EC60F120EC90FFF2B31D0FF2A47
S214023EE034D0002B16D1604260418446002A14D09A
S214023EF0002820D18E4217D1934215DC04DBAC4257
S214023F0012D80020AC4212D27042704140420123C5
S214023F1018430CE0002AEDD194466F426F4160468A
S214023F20002805D1002FE5D0704201231843F0BDCA
S214023F300020002FFBD1484248414042012318434B
S214023F40F5E7002CCBD002204042F0E7002DC8D087
S214023F50F9E7C0464A024302F0B55C0A550A430036
S214023F604A001B0EC60F120EC90FFF2B27D0FF2AC0
S214023F7029D0002B10D0002A15D194466F426F41EB
S214023F806046002815D00020002F04D14842484140
S214023F90404201231843F0BD604260418446002A35
S214023FA0ECD00028F2D18E4211D070420123184381
S214023FB0F1E7002FF7D0704201231843EBE7022007
S214023FC0002CE8D1D3E70220002DE4D1D1E79342BA
S214023FD0EBDC04DBAC42E8D80020AC42DBD2704219
S214023FE07041404201231843D5E7C046F0B55F460C
S214023FF056464D464446F0B44402460083B00F1C73
S214024000640A360EC50F002E41D0FF2E22D0802322
S2140240101B0400201C43E4007F3E82468046391C77
S2140240204B007F02C90F7F0A1B0E8B463BD0FF2B2D
S21402403034D0802212041743FF007F3B00215A46E9
S2140240406A40019252460A430F2A63D87A4892007F
S21402405082589746002C3FD1082202239246984661
S214024060DDE70195404602282AD1019A012515402E
S214024070FF2300246402DB05600AED071843284389
S21402408003B03CBC90469946A246AB46F0BD002C17
S21402409027D10420012282469046C0E7391C4A1ED8
S2140240A091410231CBE70121002FC8D0381C02F023
S2140240B0DDF9431F9F4076235B421B1A0021BEE7B1
S2140240C0032800D1AEE001284FD1019842461040A5
S2140240D0C5B200230024CDE70C2303209A4680466F
S2140240E09DE7201C02F0C2F97626431F9C407642CA
S2140240F00023361A9A46984691E780240025E40360
S214024100FF23B7E75B463C1C01938846AAE73C1CA4
S2140241108846A7E7250C24043A0C240C3F04F6181C
S2140241203F0C211C231C794353436F435543FB1812
S2140241300A0C9B18B1469F4202D980225202AD1841
S21402414009041A04090C521894011B0C611E8C41B6
S214024150920EED181443AD012C43230105D501221E
S21402416063080120144081441C434B467F33002BD6
S2140241702DDD600704D00F222240042A00D004342A
S214024180220103D52D4B1C404B468033FE2B17DDF8
S214024190019B01251D400024FF236BE78020C003FE
S2140241A0044208D0074206D1041C3C436402640A57
S2140241B05D46FF235EE704436402640AFF2359E771
S2140241C00198A4010125640ADBB2054052E77E236A
S2140241D05B424A469B1A1B2B05DD019B01251D40AF
S2140241E00024002346E7221CDA404B469E339C40BE
S2140241F0231C5C1EA3411343580704D00F221A4007
S214024200042A00D004335A0105D5019B01251D401E
S214024210002401232EE701989C010125640A05402B
S214024220002327E78027FF03019B3C436402012506
S2140242301D40640AFF231DE7E47C0300FFFFFFF72F
S214024240F8B5C20F430244004D024800240E161C65
S2140242509B09000EC90FAD09FF2800D183E0012794
S21402426079408A425CD0221A002A00DC8EE00028BE
S2140242701ED1002D00D07AE0580704D00F221A4033
S214024280042A00D004338021C90401221940324096
S21402429000293AD00134FF2C00D183E09B015B0A4F
S2140242A05B02E4B2E405580AD20720431043F8BD85
S2140242B0FF2CE1D08021C9040D431B2A00DD31E129
S2140242C0291C2020D140821A95406A1E95410D4332
S2140242D05B1B5801D0D59B019F09381C02F0C6F81B
S2140242E0421F974094425FDC141B1F231B1B3A1C81
S2140242F09F40611C3B1CCA405F1EBB411343002407
S214024300BAE7131EB8D100230022DB08FF2C04D123
S214024310002B47D08020C00303435B025B0ABFE743
S214024320211A002944DD002827D0FF2CA4D08020A3
S214024330C00405431B2900DDF2E0281C2027C840E4
S214024340791A8D40691E8D4105435B19590100D4C7
S21402435092E70134FF2C59D0734901221A400B40D0
S2140243605B08134388E7002D00D07AE777E7013A27
S214024370002AADD0FF2CA0D17EE7002D00D17BE72E
S21402438001390029E1D0FF2CD4D175E7002A1BD1D0
S214024390621CD2B2012A4BDD5F1B7A0123D5EF1ACB
S2140243A00E1C9AE700237BE75F4BA41A3B4063E7A9
S2140243B0002946D1611CC8B2012829DDFF2924D074
S2140243C0EB185B080C1C57E7002C13D0FF2818D0FC
S2140243D08024E404524223431B2A4DDD0123EB1AB8
S2140243E0041C0E1C75E7002F00D076E7002300227F
S2140243F000248AE7002B3BD0D243002AEFD0FF28C6
S214024400EAD12B1CFF240E1C36E7FF2400237CE790
S214024410002C5CD1002B00D180E0002D00D12BE7D0
S2140244205B19580100D427E73F4A0124134023E7CB
S214024430002C15D1002B40D1002D63D02B1C0E1C56
S2140244401AE7002C21D1002B54D0C943002904D0EE
S214024450FF284CD01B2958DD01235B19041C75E785
S214024460002B19D1002D48D02B1C0E1CFF2403E76D
S2140244702B1C041C0E1CFFE61C1C2026D440B21A61
S21402448093405A1E93412343A9E7FF282FD0802446
S214024490E40449422343DDE7FF24002D00D1EBE686
S2140244A08022DB08D203134204D0ED08154201D164
S2140244B02B1C0E1CDB00FF24DEE6002D00D1DBE603
S2140244C05A1B500100D41CE7EB1A0E1CD4E6002B34
S2140244D00DD0FF24002D00D1CEE68022DB08D203C9
S2140244E01342E7D0ED081542E4D12B1CE2E72B1C61
S2140244F0FF24C1E62B1C041CBEE6802300229B047C
S214024500FF2402E7231C0022FFE61C1C2027CC40C7
S214024510791A8B40591E8B4123439EE72B1CABE630
S214024520012512E70125D3E6FFFFFFFB4302590AE6
S2140245304300C20F1B0E00207E2B0DDD9D2B0CDCD4
S214024540802000040143952B0ADC9620C31AD9402A
S2140245504842002A00D1081C7047034BD018FBE7DC
S214024560963B9940F4E7C046FFFFFF7F70B5041EF6
S2140245703CD0C60F00D04442201C01F077FF9E2399
S214024580251C1B1A962B0CDC083884406402640A2D
S214024590DBB2321C6402DB05600AD2071843104302
S2140245A070BD992B0ADD0522121A211CD1400A1C65
S2140245B0011C1B318D40691E8D411543052801DD06
S2140245C0421F9540164C2C406A0704D00F22154015
S2140245D0042D00D0043461010CD59F23181AFF283D
S2140245E01AD0A401640AC3B2321CD3E70022002305
S2140245F00024CFE7E408FF2B04D06402640ADBB28F
S214024600321CC7E7002C04D08020C0030443640297
S214024610640A321CFF23BDE7321CFF230024B9E7DD
S214024620FFFFFFFB10B5041E33D001F01FFF9E23D1
S2140246301B1A962B09DC083884406402640ADBB233
S2140246406402DB05600A184310BD992B0ADD0522B9
S214024650121A211CD1400A1C011C1B318C40611EFF
S2140246608C411443052801DD421F9440144A22401F
S214024670610704D00F210C40042C00D004325101F3
S2140246800AD59F23181AFF2816D09401640AC3B2CB
S214024690D6E700230024D3E7D208FF2B03D0540228
S2140246A0640ADBB2CCE7002A06D08024E403144373
S2140246B06402640AFF23C3E7FF230024C0E7C04660
S2140246C0FFFFFFFBF8B55F46564644464D46F0B43C
S2140246D00C034D00CE0F610A440F2143C400180399
S2140246E080465800400D8246D80F84464046400A0F
S2140246F0530F0343D0006D0D371C83465246664562
S21402470000D1A4E0AF1A002F00DC09E1002A3BD159
S214024710184300D0EAE0630700D187E00F23234066
S214024720042B00D182E0221DA242A44164428023CF
S21402473009191B040B40371C141C002B00D17CE00B
S214024740CE4B01359D4200D105E1CD4BE408194020
S2140247504807490204430B0B002000211B031A0BD7
S2140247600B0D6D051B0513436A08C64DFF071D405A
S21402477015436D006D08291C3943201C3CBC90462D
S2140247809946A246AB46F8BDBC488542C3D08020B7
S21402479000040343382F00DDF0E01F2F00DD24E184
S2140247A02020C01B1A1C814682405846F84002430D
S2140247B0944658464A469040421E9041FB40624606
S2140247C002431F1CA21A9442A4416442C91B091B3D
S2140247D0141C0B029FD549024F0A002F00D1C8E0D5
S2140247E0381C01F043FE021C083A1F2A00DDB5E021
S2140247F02821091A201C9740C84007439440954236
S21402480000DDB2E0551B691C1F2900DDDCE01F221B
S214024810551B3B1C221CAB40CA40AC40651EAC413B
S2140248201343CF401C43391C002574E780231B0426
S2140248300B40371C002B00D082E7904B4807E40859
S2140248400443C9089D4248D009030B0B84E7AA1A01
S2140248509446002A00DC98E05046002852D087484A
S214024860854200D157E78020000403436246382A77
S21402487000DDFCE01F2A00DD4AE120226046101A15
S2140248801A1C82408246914658466246D0404A46A4
S21402489002439046584652469040421E9041424637
S2140248A002436046C3401219A242A4416442591808
S2140248B00919141C080200D42DE7704B01359D42DD
S2140248C000D122E16E4B60081940012323401C1CD4
S2140248D00443CB071C4349081DE7231C0B433AD06D
S2140248E080231B030B431B031B0B35E7013F002FE3
S2140248F065D15846221A9442A4416442C91A091B39
S214024900141C66E75846184300D104E701225242B7
S21402491094446046002800D0C5E058460219C3E712
S214024920002F73D1681C4005400D012800DCDEE034
S2140249305A46A21A9442BF41C81A7F42C71B38027F
S21402494000D489E05A46141BA3459241591A524292
S2140249508F1A664641E700230024FDE6271C283806
S21402496087400024954200DC4CE74549AD1A3940A1
S214024970D1E6201C01F07AFD203034E75A461A436D
S214024980531E9A41D2B200271CE7002A00D0DCE070
S214024990681C4205520D012A00DC8DE0374DA84204
S2140249A000D1F3E05D462A19A242A4416442591896
S2140249B00919CC07520814434908051CABE62F48D0
S2140249C0854200D0E6E6A6E62B1C1F3B3A1CDA40E0
S2140249D0131C20296CD03F22551BAF403C43601E5F
S2140249E084411C430021002595E6381C20381A1CF9
S2140249F0C240101C202F5DD04022D71BBB405A4617
S214024A001A43531E9A4102430027DBE6002D3BD091
S214024A101A4DAA4500D193E080252D047F422943F2
S214024A20382F00DDACE01F2F00DD29E12025ED1B2D
S214024A30081C261CA840FE40AC400643651EAC413E
S214024A403443F9405D462C1BA34592415B1A524201
S214024A50991A55466646BCE6131C3B43141C002BAB
S214024A6000D0BAE60027002100250024E5E65A46D3
S214024A701A43531E9A41D2B2002314E7FF070000DE
S214024A80FFFF7FFFFFFF0F800D1C254358D0FF431B
S214024A90002F51D1041BA3459241591A5242891A3A
S214024AA05546664695E69648854200D0DEE632E6EC
S214024AB0002793E70023A2E7081C2043002D00D01E
S214024AC0C4E0002800D1F7E05846184300D122E699
S214024AD058460219A242A441644259180919141CE4
S214024AE00A0200D417E6874B0125194013E6081C74
S214024AF02043002D39D1002871D15946194303D0DD
S214024B00191C5C46664606E600270021002494E649
S214024B10604620381A1CC24060469146202800D1C2
S214024B20ACE04022121A93405A461A43531E9A4148
S214024B304B461A430023B6E6714DAA4500D06FE7EE
S214024B40191C5C4655466646E5E5002D22D10D1C2D
S214024B50254377D0D543002D71D15C445C45924104
S214024B605918524289185546A4E600284DD159468E
S214024B70194300D194E0191C5C466646604DCAE5AE
S214024B800C43611E8C41E4B200215BE7051C002148
S214024B90002452E65A4DAA4554D0554280221004AB
S214024BA00143382D00DD81E01F2D00DD92E020223A
S214024BB0501B0A1C84468240201CE8400243904652
S214024BC062469440601E844142461443E9405C4477
S214024BD05C459241CB185242991855466AE65846A9
S214024BE0184300D197E55846271ABC429241C81A84
S214024BF05242801A020266D55846041BA3459241C9
S214024C00591A5242891A664685E55846184333D0E1
S214024C104807E40804438020C9080003014208D07C
S214024C20DD08054205D15946CA085C071443291C0B
S214024C306646630FC9001943E400314D6BE5304AFE
S214024C409245AED1191C5C46554664E5002836D01E
S214024C505846184310D080254807E408C9082D0393
S214024C6004432942E5D0D8082842E2D15D46EA0844
S214024C705C071443011CDCE7214D4CE5002353E797
S214024C803D1C203D0A1CEA40151C202F34D040262D
S214024C90F71BB9400C43611E8C412C430021D1E620
S214024CA080210027C903164D0024C6E50C43611E69
S214024CB08C41E4B200218AE7191C5C462BE5191CDC
S214024CC05C460F4D27E5031C3B4300D11CE7011C45
S214024CD03C1C20E52020404240190A1CC240904657
S214024CE0202D0BD04020451BA9400C43611E8C4151
S214024CF045462C4300216AE70021CBE70021F4E772
S214024D00FF070000FFFF7FFFF0B5564644465F46AA
S214024D104D46F0B41F1C0B031B0B98464B0087B086
S214024D20041C81465B0DC80F161C9A460090002B89
S214024D3051D06A4B9A4531D08022414652030A43EB
S214024D40630FD2001A43664B90460025E200914656
S214024D509A44002402953B031B0B9B46FD0F7B00E7
S214024D60311C5B0D019560D05C4A934254D0802181
S214024D70584649030143720FC9001143584A8B46ED
S214024D809B18F1000020009A04436A4003920F2CFD
S214024D9000D9ADE0534EA4003459A746404604431A
S214024DA06ED1002102250824884689460295D2E75C
S214024DB0009C0298C34649460194022864D0032800
S214024DC000D1ABE2012800D038E2019A002402406A
S214024DD00025A14660E0434623434AD040460028C9
S214024DE000D1C0E101F042FB031E272B00DDB3E138
S214024DF028210D1A211C083B4246E9409A400D1C08
S214024E001543221C9A40A8469146374B00251B1A8A
S214024E109A46002402959EE75A4616430320002E21
S214024E20B1D1B34600210220ADE75A4632431BD029
S214024E305B46002B00D18AE1584601F017FB272873
S214024E4000DD7DE12822171A011C321C08395B4658
S214024E50FA408B40171C1F43331C8B40BB46191C61
S214024E60214B1B1A00208EE70027BB46002101209B
S214024E7089E70020012504248046814602956AE7D8
S214024E8003250C24029566E7019C0394039D0122E8
S214024E902A400024114DA146002000212403260B9F
S214024EA00C0D2405114B34432D0523402B435B0088
S214024EB05B08D207191C4846114307B03CBC904613
S214024EC09946A246AB46F0BD0022802424039146B2
S214024ED0024DE1E700240025A146DDE7FF070000BA
S214024EE001FCFFFF247D03000DFCFFFFFFFF0F8088
S214024EF05546ED1A0495D84500D953E100D14EE146
S214024F00049C0025013C4E4604944746A946584652
S214024F1003020C0E1C430902250C23041B0C0091F1
S214024F20381C291C0193FEF7EBFA0199834641438C
S214024F30381C8A46291CFEF727FB330C0904194342
S214024F408A450CD95B460919013B8C4200D947E1D8
S214024F508A4500D844E10222524293440919534634
S214024F60CB1A181C291C9846FEF7CAFA071C019889
S214024F70291C784382464046FEF706FB36040B049D
S214024F80360C33439A4509D91B197A1E9C4200D91E
S214024F9024E19A4500D821E1023F1B195E463204FD
S214024FA01743380CBB46009E009F51463F0C320406
S214024FB05B1A5946BA46120C0F043F0C90465146ED
S214024FC07A434F434146414356467043CF19160C27
S214024FD0BE19B14202D980277F02C019310C1204D1
S214024FE03604120C4018B618834200D2C4E000D130
S214024FF0BEE0191A4846861BB145BF417F42CF1B09
S214025000A74200D113E1291C381CFEF779FA019950
S21402501002904143381C8946291CFEF7B5FA330C28
S2140250200904194389450CD9029B0919013B8C4294
S21402503000D9FFE0894500D8FCE0029F0919023F2B
S21402504002974F46CF1B381C291C0597FEF758FAC5
S214025050071C0198291C784381460598FEF794FAA6
S21402506036040904360C0E43B14509D936197B1E9F
S214025070B44200D9E0E0B14500D8DDE0023F36197F
S214025080029D4946761A290439430B0457460A0CF0
S2140250901B0C40464546584355437B437A43EB1820
S2140250A0070CDB199D4202D980256D0252191D0C90
S2140250B000041B04000C52191B18964235D300D16B
S2140250C0FCE001231943049E994FF519002D00DCDC
S2140250D0A1E0480709D00F230B40042B05D00B1D77
S2140250E08B42894149428B44191C5A46D20107D544
S2140250F0904B5C46049E80271C40FF00A346F51991
S2140251008D4B9D427ADD039C0122224000248B4D6A
S214025110A146C1E680242403474627424CD13C439D
S2140251202403240B009A854DB6E63619481EB4426F
S2140251305ED9011C9642C4D1009E9E42C1D1C2E7EE
S214025140031C283B311C99408B46002188E6301C04
S21402515001F08CF9203072E6283B211C994000228F
S2140251608846914651E6201C01F080F920303BE645
S2140251700021B14500D33DE7009F5A46B944B945E0
S214025180BF417F423F19FB18013A9C421ED2984209
S21402519000D97EE000D1B5E0191A93462AE7894580
S2140251A000D8ADE64846464642467708D307460844
S2140251B0C0071E438146AAE65846204212D104433F
S2140251C024032A1C240B89465C4D65E6A342E3D1E0
S2140251D0009F4F45DBD9211A93460BE7171CDDE6E5
S2140251E09B46BCE63C432403240B009A534D53E6ED
S2140251F0B24259D800D18AE0011C62E75F46C9086C
S2140252007B07039E0B437C026D0501229946240B05
S2140252106D0D324040E64A4B049FDB1B382B10DDF7
S214025220039C0122224000240025A14634E60121E7
S214025230494248E7029304E71F1C21E7019C0394B6
S21402524041E71F2B40DC3F48049F0C1C3A18584687
S2140252509140DC40904020430A1C511E8A41011CAA
S21402526011435A46DA40131C480709D00F220A4057
S214025270042A05D00A1D8A42894149425B18111C3C
S2140252801A0234D5039C0122224000240125A1469D
S21402529002E6009F02214942B9448B44B94589413E
S2140252A049420919CB18A4E6009D881E6900A94246
S2140252B0AD416D422C19361900913AE7002B00D009
S2140252C033E70024009437E71F4A049C5D46121B0E
S2140252D0D5402A1C202B1FD01C4E5F46A3199F4088
S2140252E03B1C19434B1E994111430023BCE75A0746
S2140252F0C9080A43039F91465B0201221C0B3A40EF
S2140253000025C9E54E45C4D89346002172E6009FA3
S2140253109F42C9D3011C0FE70023E2E7802424033F
S2140253205F463C432403240B019A8946034DB3E5AA
S214025330FF030000FFFFFFFEFE070000FF0700005E
S21402534002FCFFFF1E040000E2FBFFFF3E0400001B
S214025350F0B55F4656464D464446F0B40D1C041C56
S2140253608046E80F814618030F03000B3F0B83B0FD
S21402537084461B48009749005E00DF0F490D92469F
S214025380760DBB4681420CD01548864210D00120CD
S214025390B14215D003B03CBC90469946A246AB46F5
S2140253A0F0BD009F01202743F4D10D488642EED17E
S2140253B0604602430120002AECD10120B142E9D125
S2140253C0009B6345E6D1D045E4D1D94506D00029F5
S2140253D0E0D11C43201C441EA041DBE70020D9E795
S2140253E0FF070000F0B55F4656464D464446F0B409
S2140253F0CD0FDE0FAC461D032D0BB146374E0F0305
S2140254004C00AB465D0080463F0B640D92466D0D28
S214025410B44232D0314EB54235D0002C0ED138438C
S21402542041424141081C002D0BD0002919D1CC4520
S2140254302DD0654668420123184318E0002DF6D1A8
S214025440281C59460A4353425341002806D1002BD2
S214025450EDD0634658420123184308E00020002B93
S21402546005D14A46504250414042012318433CBCB3
S21402547090469946A246AB46F0BD3E1C0643C9D0AE
S21402548002204042F3E75E461643C6D0F8E7AC4237
S21402549007DC0BDA61464842484140420123184382
S2140254A0E5E76646704201231843E0E75F450AD8FF
S2140254B00ED000205F45DAD2654668426841404217
S2140254C001231843D3E76246504201231843CEE72E
S2140254D0D045F8D80020D045EED3C8E7FF07000035
S2140254E0F0B556464D4644465F46F0B40D1C83B0B2
S2140254F0041C0190E80F814618030F03000B3F0BB4
S21402550084463548009749005E00DF0F490D9246F3
S214025510760DB846814234D02F48864236D00029CE
S21402552018D0002E1FD1341C67463A4353425341CB
S214025530002C1FD00020002B05D14246504250417D
S21402554040420123184303B03CBC90469946A2460B
S214025550AB46F0BD0098044360426041041C002E36
S214025560E2D00028E9D1C14515D04F467842012342
S2140255701843E8E7002BF6D04B465842012318435F
S214025580E1E7009F02202743DDD1C5E767460220F8
S2140255901743D8D1C3E7B14204DD4A46504201233D
S2140255A01843D0E7B14207DB00986045E4D80AD03A
S2140255B0009F00206745C6D24F4678427841404257
S2140255C001231843BFE7019A5245D5D8019A002015
S2140255D05245F1D3B7E7C046FF070000F0B556467E
S2140255E044465F464D46F0B41F1C0B031B0B9A46FF
S2140255F04B0087B0041C80465B0DC80F161C029336
S2140256008146002B68D0694B0299994232D080229B
S214025610534652031A43D200630F1A439246644A11
S214025620E000891880460291002400253B031B0BEC
S2140256309B467800FB0F321C400D039300D175E0A9
S2140256405A4B984269D08022594652030A43730F36
S214025650D2001A43564B9346C018F2000023039911
S2140256604E4671401C430F2C00D9A9E0514EA400AF
S2140256703459A74653461C4300D087E00025AA4665
S214025680A84608240225D1E74946022D6CD0032DF0
S21402569000D117E2012D00D058E10D40EDB20024F2
S2140256A0A9460023A0460020002125030A0D1C055A
S2140256B02D0B1205404B2A43134023435B004C46F6
S2140256C05B08E207191C4046114307B03CBC9046F3
S2140256D09946A246AB46F0BD5346234350D05346A6
S2140256E0002B00D184E1504600F0C0FE031E272B9B
S2140256F000DD76E128210D1A211C083B5246E940BE
S2140257009A400D1C1543221C9A40AA4690462B4BE3
S21402571000241B1A0293002588E75B461E430323D8
S214025720002E9CD1B3460022022398E75B46334301
S21402573021D05846002800D14EE100F097FE2728D7
S21402574000DD42E128210F1A021C311C083A5B4692
S214025750F94093400F1C1F43331C9340BB461A1C50
S214025760164B181A00237AE701230B4000249946A9
S214025770A0460E4B97E70027BB46002201236EE7A2
S214025780002104248A46884601254FE70C24032577
S2140257904CE700258024A9462403A846034B82E74B
S2140257A0DA46904603991D1C6FE7C046FF070000C5
S2140257B001FCFFFF647D0300FFFF0F800DFCFFFF6F
S2140257C0029F160C381804904046070C0004000C82
S2140257D01204120C031C5343041C3D1C7443554311
S2140257E098463B1C73436419A44644460293230C12
S2140257F063449D4204D9029D802464022D190295B9
S2140258001D0C039545462C041B04240C1C190594F8
S2140258105C46230C051C58432404240C8446381C7E
S214025820604365435F438146CC44280C6044BB46D4
S214025830814502D980277F02BB442D04070C2D0C1C
S214025840000440195546BC462F04E3448446280CFF
S2140258503D0C2F1C5743B8462F1C77434243B9468C
S21402586047463F0C9144BA46D14446434A4502D97C
S21402587080225202B6184F463A0CB6183A044746E9
S2140258803F043F0CB8462F1C67435D4344435843CE
S21402589065190190380C2D184244B846AC4204D91A
S2140258A0019880235B02C0180190039C029F201C73
S2140258B06044C0196045A44147466442A4462B048E
S2140258C03C049946240C4C44A046D8448018C24650
S2140258D0E24490429241574652429146F219E245BC
S2140258E0BF417F424B46BC46D845BF41D4187F4293
S2140258F063461F432D0C7F19B24292414C45AD417F
S21402590052426D421543019E7D19AB19E20D5B02B0
S214025910059F134342023A439A46531E9A41C30DC9
S214025920101C18436402204380465046C0010DD521
S214025930454601225646049C6B082A401A43F30742
S21402594001341A43760804949046B246049E634F86
S214025950F319002B61DD404640070BD00F22444668
S2140259602240042A06D04246043242458041404242
S214025970824490465546ED0107D5594B5646049F3C
S21402598080201E40C000B2463B18564A934200DDB5
S214025990EAE644465546E2086807104301226C02CE
S2140259A05B050A408046240B5B0D91467BE6DA4691
S2140259B090461D1C69E680242403574627421CD1C4
S2140259C03C432403240B484B6DE6031C283B311C46
S2140259D099408B460022C3E6301C00F047FD20307B
S2140259E0ADE6283B211C994000228A4690468EE668
S2140259F0201C00F03BFD203078E65846204207D1B6
S214025A00044303992403240B89469046364B4AE600
S214025A103C432403240B344B45E6344B049E9B1B29
S214025A20382B06DD01230B4000249946A0460023AE
S214025A3039E61F2B25DC049C2D4D4646601952463E
S214025A4044468640DC4082405746301C2243DF40B4
S214025A50441EA04102433B1C540709D00F201040AD
S214025A60042805D0101D9042924152429B18021CF7
S214025A701D021AD501230B4000249946A046012395
S214025A8011E61C48049C5546001BC540281C202BCA
S214025A9016D0194E5746A21997403A1C43461A4347
S214025AA0531E9A4102430023D6E758075B02D208E8
S214025AB01C0B01230B401043994680460023F2E557
S214025AC00022EBE7802424035046012304431940B6
S214025AD02403240B8946044BE5E5C046FF03000079
S214025AE0FFFFFFFEFE070000FF07000002FCFFFFAD
S214025AF01E040000E2FBFFFF3E040000F8B55F460E
S214025B00564644464D46F0B40C034D00CF0F610A8C
S214025B10440F2143C4001803DE0F8046B4464646AF
S214025B205800760A530F3343D600D14A6D0DBA4653
S214025B30400DB346904200D1F5E06246012672401F
S214025B409446674500D1ABE02F1A002F00DC11E126
S214025B5000283ED15846184300D0F1E0600700D135
S214025B6097E00F232340042B00D122E1221DA242FC
S214025B70A4416442802309191B04012750460B40A6
S214025B800740141C002B00D179E0B94B01359D4229
S214025B9000D10BE1B74BE408194048074902044319
S214025BA00B0B002000211B031A0B0B0D6D051B05AA
S214025BB013436A08B04DFF071D4015436D006D087C
S214025BC0291C3943201C3CBC90469946A246AB464B
S214025BD0F8BDA7488542C1D0802000040343382F71
S214025BE000DDFDE01F2F00DD31E12020C01B1A1C66
S214025BF05E468240FE40324394465A468240101C1D
S214025C00421E9041FB40624602431F1CA21A944267
S214025C10A4416442C91B091B141C0A029ED54902F0
S214025C204F0A002F00D1D6E0381C00F01FFC021CE1
S214025C30083A1F2A00DDC3E02821231C091A9740D0
S214025C40CB401F439440954200DDC0E0551B691CC3
S214025C501F2900DDEAE01F22551B3B1C221CAB401D
S214025C60CA40AC40651EAC411343CF401C43391CAE
S214025C70002573E780217E4D0027C90300247C4B54
S214025C804807E4080443C9089D4250D009030B0B99
S214025C9087E780231B04012752460B40174071E713
S214025CA02A1A9446002A00DCA1E0002854D0704844
S214025CB0854200D152E7802000040343604638281C
S214025CC000DD0EE11F2800DD57E162462020801A23
S214025CD01E1C8640B1465E46D6404A4632435E4663
S214025CE086409046301C421E904142460243604621
S214025CF0C3401219A242A441644259180919141C3D
S214025D00080200D42AE75A4B01359D4200D131E100
S214025D10584B60081940012323401C1C0443CB0740
S214025D201C4349081AE71E4300D00AE705E7231C6E
S214025D300B433BD080231B030B431B031B0B30E799
S214025D40013F002F6DD15E46A21B9442A4416442DD
S214025D50C91A091B141C60E75846184300D1FDE611
S214025D6001267642B4446046002800D0D0E05E4663
S214025D703219BFE7002F00D080E0681C4005400DB6
S214025D80012800DCE8E05A46A21A9442BF41C81A2B
S214025D907F42C71B3E0200D498E05846041BA34528
S214025DA09241591A52428F1AE2463AE700230024D9
S214025DB0F7E680231B04012756460B403740E1E6F0
S214025DC0271C283887400024954200DC3EE72949F4
S214025DD0AD1A3940C2E6201C00F048FB203026E708
S214025DE05A461A43531E9A41D2B200270EE7002A99
S214025DF000D0DEE0681C4605760D012E00DC90E041
S214025E001B4DA84200D1F5E05E463219A242A441DB
S214025E10644259180919CC07520814434908051C4C
S214025E209CE61348854200D0D9E697E62B1C1F3B1A
S214025E303E1CDE40331C20296FD03F22551BAF404C
S214025E403C43601E84411C430021002586E6381C24
S214025E5020381E1CC640301C202F60D04022D71B84
S214025E60BB405A461A43531E9A4102430027CDE6C8
S214025E70FF070000FFFF7FFFFFFF0F80002D37D0D8
S214025E80B64DA84200D18FE080252D047F422943DB
S214025E90382F00DDA8E01F2F00DD24E12025ED1BB2
S214025EA00E1CAE40B046261CFE404246AC40164390
S214025EB0651EAC413443F9405A46141BA345924131
S214025EC05B1A5242991A051CE246A6E6131C3B438D
S214025ED0141C002B00D0A4E6002700210025002475
S214025EE0CDE65A461A43531E9A41D2B2002300E721
S214025EF00D1C254358D0FF43002F51D15A46141B80
S214025F00A3459241591A5242891A051CE24684E672
S214025F109248854200D0D1E620E6002790E700238B
S214025F209FE7081C2043002D00D0C2E0002800D1C5
S214025F30EFE05846184300D110E658460219A2422E
S214025F40A441644259180919141C0A0200D405E631
S214025F50834B0125194001E6081C2043002D38D149
S214025F6000286FD15946194303D0191C5C46E246F5
S214025F70F4E500270021002481E6604620381A1C3A
S214025F80C2406646101C202E00D1AAE04022921B78
S214025F9093405A461A43531E9A4102430023A8E6E8
S214025FA06E4DA84200D073E7191C5C46051CE246FB
S214025FB0D4E5002D22D10D1C254376D0D543002DE5
S214025FC070D15C445C459241591852428918051CAE
S214025FD096E600284CD15946194300D14AE6191CC8
S214025FE05C46E2465D4DB9E50C43611E8C41E4B267
S214025FF0002161E7051C0021002440E6574DA84217
S21402600053D05542802216043143382D7BDC1F2D97
S21402601000DD8CE02022561B0A1CB446B240261C29
S214026020EE403243904662469440661EB441424673
S2140260301443E9405C445C459241CB18524299189D
S214026040051C5DE65846184300D187E55E46A71B49
S214026050BC429241C81A5242801A060260D558467D
S214026060041BA3459241591A5242891AE24675E523
S2140260705846184333D04807E40804438020C9082A
S2140260800003014208D0DD08054205D15946CA0878
S2140260905C071443291CE246630FC9001943E40057
S2140260A02E4D5BE52D4A9042AFD1191C5C46051C6D
S2140260B054E5002830D05846184310D080254807AB
S2140260C0E408C9082D0304432942E5D0D80828422B
S2140260D0E2D15D46EA085C071443011CDCE71F4D6B
S2140260E03CE5002355E73D1C203D0E1CEE40351CCA
S2140260F0202F2ED04026F71BB9400C43611E8C4140
S2140261002C430021D8E60C43611E8C41E4B20021E8
S21402611090E7191C5C4621E5191C5C460F4D1DE5EF
S214026120031C3B4300D124E7011C3C1C16E5202639
S214026130764276190A1CF2409046202D0BD0402655
S214026140751BA9400C43611E8C4145462C43002119
S21402615070E70021D1E70021F4E7C046FF07000000
S214026160FFFF7FFF70B50B1C124C09030E0B590084
S214026170021C490DDD0F0020A14211DD0E488142AE
S2140261800FDC8020400306430C48401A1F280BDD14
S2140261900B4A521AD640321C5042002D00D1101C17
S2140261A070BD084BE818FBE7074BC240C9188E4083
S2140261B03243F1E7FE0300001D0400003304000032
S2140261C013040000FFFFFF7FEDFBFFFFF8B5041E80
S2140261D031D0C70F00D04442201C00F047F9184DBA
S2140261E02D1A0A2819DD0B38844024036D05240B6A
S2140261F06D0D3A1C0026002000210B0D2403240BF3
S2140262001B0523430F4C2D051C402C4364006408D9
S214026210D307211C301C1943F8BD061C1536231C57
S214026220B3401E1C0B23181AC44024036D05240B0E
S2140262306D0D3A1CDFE70022002500240026DAE76F
S2140262401E040000FFFF0F8010B5041E28D000F0C9
S2140262500DF9154A121A0A2815DD0B388440240354
S2140262605205240B520D0023002000212403181C83
S2140262700B0D240B1B0523430C4C12051C40144328
S2140262806400610810BD031C1533211C99400B1CC9
S2140262900B21081AC44024035205240B520DE3E7CF
S2140262A0002200240023DFE71E040000FFFF0F8009
S2140262B043001B0E5A1C4102D2B270B54C0AC50FDF
S2140262C0012A17DDE02292006407090B98180022C3
S2140262D000231E0D221C34050C431B4940054008B2
S2140262E02140014349004908ED070B1C2B43101CB3
S2140262F0191C70BD002B15D1002C1CD0201C00F0E0
S214026300B5F80A281ADC0B21091A231CCB40191CE3
S214026310031C15339C400D4B0903181A4005090B44
S214026320400DD4E7002C03D06407090B0848CEE7DB
S21402633007480021CBE700200021C8E7011C0B39E3
S2140263408C40211C0024E6E7FFFF0F808903000033
S214026350FF070000F0B54B000D03420F5B0D6D0A00
S21402636015435A1C5205CC0FC600520D012A27DDD2
S214026370394FDA19FE2A1ADC002A35DD8001ED00D3
S214026380431E98412843760F3043430704D00F2319
S2140263900340042B00D004308021C904014027D0DA
S2140263A00132FF2A1DD083015B0AD1B201E0FF2130
S2140263B000235802C905400AE40708432043F0BDFB
S2140263C0002B06D1354311D10021002043025B0A7F
S2140263D0EFE72E43EBD08020ED0080042843FF2217
S2140263E0D3E7FF210023E4E717320DDA0520002267
S2140263F0C008D1B2FF2AE9D10028D9D08023DB0316
S21402640003435B025B0AD4E7802214491204154355
S214026410C91A1F290DDC124A371C9B18281C9F40DC
S21402642098403B1C5A1E93411843CE4030430022EC
S214026430ABE70C4F2A1CFF1AFA40171C202909D07A
S214026440094A98188540281C3043461EB0413843F6
S21402645000229AE70020F7E780FCFFFF9E03000079
S21402646082FCFFFF7E030000A2FCFFFF1C2101232B
S2140264701B04984201D3000C10391B0A984201D320
S214026480000A08391B09984201D30009043902A2FE
S214026490105C40187047C046040302020101010165
S2140264A00000000000000000F0B544465F46564675
S2140264B04D46F0B41C1C85B0002900DADBE00F1C48
S2140264C00021061C8A46101C191C002C00DAC9E0A2
S2140264D00196009089468046002951D1B84200D8DC
S2140264E071E0FFF7C3FF002809D020234546311C80
S2140264F01B1A85408740D940A8460F43864042462D
S214026500150C13041B0C291C381C9B46FCF7F8FFC1
S2140265105B464343041C291C381C9946FDF734F895
S214026520330C08041843814509D94044631E80454C
S21402653000D978E1814500D875E1023C40444946DD
S214026540411A8946081C291CFCF7DAFF5A464243C0
S214026550071C291C48469346FDF716F8360409041C
S214026560360C0E43B34507D946447B1EB04502D8C7
S214026570023FB34500D81F1C24042743002403E02F
S214026580B94211D9002400275246381C211C002A81
S21402659003D03B1C00215842A14105B03CBC9046AA
S2140265A09946A246AB46F0BD081CFFF75FFF041EE5
S2140265B000D0BFE0B94500D242E1019D0099071C18
S2140265C08D424741E0E7002804D101200021FCF774
S2140265D097FF80464046FFF749FF002852D14146C2
S2140265E044460B043C1B1B0CA3460D0C00930124D3
S2140265F0291C5846FCF784FF009F81464743291C06
S2140266005846FCF7C1FF330C090419438F4208D9D8
S2140266104B464144013B884502D88F4200D91AE1D5
S2140266209946C91B8B46081C291CFCF769FF009B70
S214026630291C4343071C58460093FCF7A5FF360463
S214026640009D0904360C0E43B54207D946447B1E0C
S214026650B04502D8023FB54200D81F1C49460E0478
S214026660374391E75246D243031C0C1C9246002144
S2140266705842A1412CE7002746428F410121494258
S2140266808A4620E720231B1A4246351C82403C1CC1
S214026690DD40DC4087402B1C150C3B43291C864002
S2140266A0201C009317049046FCF72AFF3F0C011C9F
S2140266B0794381468B46201C291CFCF765FF009C0B
S2140266C00904230C19438B450CD94B464144013B24
S2140266D0884500D9BDE08B4500D8BAE00222524276
S2140266E0914441445C460C1B201C291C0194FCF777
S2140266F007FF391C4143041C8B460198291CFCF7F2
S21402670043FF009A090413041B0C19438B4509D94D
S2140267104144631E884500D997E08B4500D894E033
S214026720023C41445B46CB1A49469B460B041C433B
S21402673000975DE7009D20231B1A4A468240DD40F3
S2140267401543391C009AD94082408846311C009273
S214026750D9403A1C82400B1C134301932F0C2B0486
S2140267601B0C391C40460293FCF7CAFE029A81466D
S2140267704243391C40469346FCF706FF019A090439
S214026780130C19438B450AD94B464919013B8D42D6
S2140267905DD88B455BD902235B42994449195A4618
S2140267A08A1A101C391C0392FCF7AAFE029B80462A
S2140267B04343391C03989B46FCF7E6FE019A0904FC
S2140267C013041B0C19438B450AD943464919013B4E
S2140267D08D4238D88B4536D902235B4298444919F4
S2140267E05D464D1BAB464946009D0F044246174385
S2140267F02A04120C3B042D0C1B0C380C111C59439A
S21402680042436B436843D3180D0C5B198C469A427D
S21402681002D98022520280181D0C401983450CD3DF
S21402682003D00024B0E61C1C89E665462A041B0435
S214026830120C9B18A6409E42F3D2013F0024A3E608
S21402684000240127A0E69846CAE71C1C6AE7994678
S214026850A5E7994646E70222524291444144E0E6C1
S214026860F0B55F4656464D464446F0B40D1C85B01C
S214026870061C924698460290019103921F1C141C15
S2140268808346A946002B59D1AA4269D9101CFFF7A4
S214026890EDFD00280AD020231B1A311CD940854062
S2140268A00B1C2B43864084409946B346250C230492
S2140268B01B0C291C48469846FCF722FE4646071C37
S2140268C04643291C4846FCF75FFE5A460904130C49
S2140268D019438E4209D909197B1E8C4200D957E109
S2140268E08E4200D854E1023F0919891B8946081CCA
S2140268F0291CFCF705FE43464343061C291C484652
S2140269009846FCF741FE5A46130409041B0C194329
S214026910884508D90919731E8C4200D936E1023E11
S214026920884500D832E1380430430027391C05B0C8
S2140269303CBC90469946A246AB46F0BD019A9342AD
S21402694062D8181CFFF792FD041E60D1019B9F427D
S21402695000D22CE1029F03998F4260410027E5E7AF
S214026960002A04D101200021FCF7CAFD041C201CC9
S214026970FFF77CFD002800D0B9E023042D1B1B0C7A
S214026980A946260C98460127311C4846FCF7B8FD56
S21402699041464143051C8A464846311CFCF7F4FD35
S2140269A05A460804130C1843824507D900196B1E71
S2140269B0844202D8824500D910E11D1C5346C31AF0
S2140269C0181C311C9A46FCF79BFD41464143814602
S2140269D088465046311CFCF7D7FD5A461304090474
S2140269E01B0C194388450BD94B460919013B8C42AF
S2140269F000D9CFE0884500D8CCE002235B42994418
S214026A0028044946084391E7002700208EE7202302
S214026A101B1A424657468240DF4017435246824080
S214026A200192321CDA40291CD9408540131C2B43A4
S214026A3002933D0C3B041B0C8846081C291C9A46F4
S214026A40FCF75EFD534643438146291C40469B465F
S214026A50FCF79AFD029A0904130C19438B4506D9D2
S214026A604B46C919013B8F4200D8ABE099465A46BD
S214026A708A1A101C291C9346FCF742FD53464343D0
S214026A80291C804658469A46FCF77EFD029A09045F
S214026A9015042D0C29438A4506D94346C919013BDC
S214026AA08F4200D886E098465746CF1BBA464946DC
S214026AB0019F0804424610433D042D0C03043F0C7C
S214026AC01B0C020C291C594355437B437A43EB1893
S214026AD00F0CDB198C469D4202D980277F02D21901
S214026AE01D0C521992455FD356D000271EE720236D
S214026AF01B1A311C2F1CD940DF4085400B1C8440DA
S214026B002B4386400193B3462304260C1B0C381CE9
S214026B10311C9846FCF7F4FC42464243051C311CE5
S214026B20381C9146FCF730FD019F09043B0C1943C3
S214026B30894507D909196B1E8C424DD889454BD910
S214026B40023D09194A468A1A101C311C9246FCF765
S214026B50D7FC43464343071C311C50469946FCF774
S214026B6013FD019A090413041B0C1943894507D91E
S214026B7009197B1E8C422DD889452BD9023F09194B
S214026B804B46CB1A2D0499462F43FDE61E1CCAE639
S214026B901F1CAAE6994633E761460A041B04120C38
S214026BA09B18A6409E42A0D201380027BEE60027C8
S214026BB00120BBE68A4500D875E702235B4298446B
S214026BC0C91971E78B4500D850E702235B42994406
S214026BD0C9194CE71F1CD3E71D1CB3E7023D001979
S214026BE0ECE6C04680B500AF0CF076F8BD4680BD38
S214026BF080B500AF0CF028FC06F0CEFEFFF7F2FFE1
S214026C00BD4680BD80B500AF024B1D221A80BD4630
S214026C1080BDC04674E4FF1F90B5A9B004AF3960CA
S214026C20BB1D011C19803B1D1A80BB1D1B88DAB2D6
S214026C303B1C0C331A703B1D1B883A1C0C32511C31
S214026C403A68081C111C1A1C0EF014FA3B1D1B880D
S214026C5001331A1C3C1C8F340D4B391C0C3100912D
S214026C600192FA22920002920120191C00220023AD
S214026C700AF00CF9031C23703B1C8F331B78002B85
S214026C8001D0002300E00123181CBD4625B090BDAC
S214026C9074E4FF1F90B589B004AF3960BB1D011CB8
S214026CA019803B1D1A80BB1D1B88DAB23B1C0C33B5
S214026CB01A703C1C0F341B4B3A1C0C3200920122F9
S214026CC00192FA22920002920120191C002200234D
S214026CD00AF0DCF8031C23703B1C0F331B78002BD6
S214026CE001D000231AE03B1D1A883C1C0F340D4BC2
S214026CF0396800910192FA22920002920120191C30
S214026D00002200230AF0DCF8031C23703B1C0F331E
S214026D101B78002B01D0002300E00123181CBD467F
S214026D2005B090BD74E4FF1FB0B584B000AF0A1C76
S214026D30BB1D011C19807B1D1A707B1D1B78013B35
S214026D40181CFFF743FA031C0C1C224A2049081C95
S214026D50111C1A1C231C0CF09BFF031C0C1C3D1C54
S214026D600E35181C211CFCF737FD031C2B80002354
S214026D70BB60BB1D3A1C0E321B88128813409BB2A6
S214026D80002B17D0BB1DBA1D1288D2431A80BB1D1A
S214026D901B880133181CFFF719FA031C0C1C181C5D
S214026DA0211CFFF7D7FA031C802212065340BB6051
S214026DB0BB6807E0BB1D1B889B059B0D181CFDF7D7
S214026DC0D5FB031C181CBD4604B0B0BDC046C04669
S214026DD0000000000000004090B58BB000AFF860E5
S214026DE0B9607A603B1C1B3300221A703B1C1A33B4
S214026DF00A221A703B1C193308221A703B1C1833DD
S214026E0000221A703B1C173300221A703B1C2633D2
S214026E1000221A803B1C243300221A803B1C223399
S214026E2000221A80FFF7EEFE3B1C1B330020191CC3
S214026E300122FFF72FFF3B1C18333820191C0122B2
S214026E40FFF7EAFE3B1C17333120191C0122FFF71D
S214026E50E3FE3B1C1A332C20191C0122FFF7DCFE32
S214026E603B1C19332D20191C0122FFF7D5FE0A20E0
S214026E700CF09CFA3B1C1C333220191C0622FFF72E
S214026E8009FF3B1C1C335B781B029AB23B1C1C336B
S214026E901B7813439AB23B1C26331A803B1C1C33C6
S214026EA0DB781B029AB23B1C1C339B7813439AB2C4
S214026EB03B1C24331A803B1C1C335B791B029AB2A0
S214026EC03B1C1C331B7913439AB23B1C22331A8099
S214026ED03B1C26331B88181C0A21FFF725FF031CC0
S214026EE0181CFFF7E5F9031C0C1C181C211C3D4B53
S214026EF03B4AFEF773FB031C0C1C181C211C3A4A67
S214026F003A4BFDF701FF031C0C1C181C211CFFF753
S214026F1021FA021CFB681A603B1C24331B88181CCF
S214026F200A21FFF701FF031C181CFFF7C1F9031C17
S214026F300C1C181C211C2B4B294AFEF74FFB031C6A
S214026F400C1C181C211C284A284BFDF7DDFE031CCE
S214026F500C1C181C211CFFF7FDF9021CBB681A60EA
S214026F603B1C22331B88181C0A21FFF7DDFE031C7C
S214026F70181CFFF79DF9031C0C1C181C211C194B2E
S214026F80174AFEF72BFB031C0C1C181C211C164A66
S214026F90164BFDF7B9FE031C0C1C181C211CFFF730
S214026FA0D9F9021C7B681A603B1C193300221A703E
S214026FB03B1C19332D20191C0122FFF72DFE3B1C0A
S214026FC01A3300221A703B1C1A332C20191C012279
S214026FD0FFF722FE0023181CBD460BB090BDC0462C
S214026FE0000000000000104000000000000090407A
S214026FF080B582B000AF786039603B681B781A1C97
S2140270003B685B781B01D9B210230B40DBB21343FB
S214027010DAB27B689A70BD4602B080BD80B500AF1A
S214027020034B0020191C0BF019FCBD4680BDC04660
S2140270307881030080B500AF00200BF033FCBD461C
S21402704080BDC04680B588B000AF3B1C0C33012221
S2140270501A703B1C0C3300225A700023FB6100237B
S214027060BB613B1D0020191C0BF06EFB3B1D002074
S214027070191C0BF0C7FB334A3B1C0C33101C191CA3
S214027080FFF7B6FF3B1C103301221A703B1C10336D
S21402709003225A703B1C10330020191C0BF024FCF0
S2140270A03B1C14331B221A703B1C143300229A70AA
S2140270B03B1C143300225A703B1C14330020002160
S2140270C01A1C0BF02DFC002000210BF049FC0020BE
S2140270D000210BF097FC031CFB61002000210BF043
S2140270E05BFC1948F969FCF70BFA031CBB61B8692B
S2140270F0FDF798FA031C8A20C005191CFCF792FDBE
S214027100031C1A1C114B1A601148B969FCF7F8F9EE
S214027110031C1A1C0F4B1A600F48B969FCF7F0F9EA
S214027120031C1A1C0D4B1A603B1C0C3300221A70EF
S214027130044A3B1C0C33101C191CFFF759FFBD46B2
S21402714008B080BD00D0074018FCE7033CE5FF1FEF
S21402715034FDCB0234E5FF1F9CFF630038E5FF1FBA
S21402716080B584B000AF78600023FB607A680B4B72
S2140271701B68D31A0A4A5A430A4B1B680A494B43EE
S214027180101C191CFCF70AFA031C1922D31AFB60FE
S214027190FB68181CBD4604B080BDC04634E5FF1F20
S2140271A0A086010038E5FF1F5406000080B584B0B3
S2140271B000AF78603B1C0C331A221A703B1C0C334F
S2140271C000229A703B1C0C3300225A703B1C0C3374
S2140271D0002000211A1C0BF0A3FB002000210BF05C
S2140271E0BFFB002000210BF00DFC031C1A1C0A4BEF
S2140271F01A60094B1B68181CFFF7B2FF031C181C09
S214027200FDF7B4F9021C7B681A60002000210BF01F
S214027210C3FBBD4604B080BD30E5FF1F0000000082
S214027220F0B58DB000AF78603B1C2C3300221A807C
S214027230002200233A627B623B1C2E3300221A8015
S2140272403BE0554B002000211A1C0BF069FB002086
S21402725000210BF085FB3B1C2E331E8800200021EC
S2140272600BF0D0FB031C99B23B1C08337200D152C0
S214027270002000210BF090FB3B1C2C331A883B1C91
S2140272802C3301321A803B1C2E331A883B1C0833DF
S2140272905200D35A1C1C00231D1C3A6A7B6A121920
S2140272A06B413A627B6201200CF080F83B1C2E3365
S2140272B01A883B1C2E3301321A803B1C2E331B8845
S2140272C0092BBED9386A796AFCF7CAFA041C3B1C39
S2140272D02C331B88181CFDF7A5F9031C201C191C4F
S2140272E0FCF7A0FC031CFB61F869FEF7E1FF031C38
S2140272F00C1C181C211C234B214AFEF76FF9031C99
S2140273000C1C181C211C204A204BFDF7FDFC031CFC
S2140273100C1C181C211CFFF71DF8021C7B681A6047
S2140273207B681A681D4B1B68101C191CFCF75EFE56
S214027330031C1A1C7B681A607B681B68181C191CC5
S214027340FCF704FB031C1A1C7B681A607B681B682C
S214027350181CFEF7ADFF031C0C1C181C211C0C4A43
S2140273600C4BFEF7CBFB031C0C1C181C211CFEF757
S214027370F1FF021C7B681A60BD460DB0F0BDC04628
S214027380FCA9F1D24D62004000000000E0FFEF4091
S214027390333333333333D33F888103003CE5FF1F57
S2140273A0F0B593B000AF78613961FA603B1C4233A6
S2140273B000221A803B1C403300221A803B1C3E33BC
S2140273C000221A80002200233A637B6300220023F5
S2140273D0BA62FB6204F0BCFC031C181CFEF768FFD2
S2140273E0021C0B1C101C191C864B854AFEF7F6F86D
S2140273F0021C0B1C3E1C2636101C191CFCF7ECF952
S214027400031C33803B1C443300221A8064E0804B0A
S214027410002000211A1C0BF083FA002000210BF03A
S2140274209FFA002000210BF0EDFA031C1A1C3B1CED
S21402743046331A80002000210BF0AEFA3B1C403384
S2140274401A883B1C403301321A803B1C46331B8889
S2140274509BB21C1C00231D1CBA6AFB6A12196B41E4
S214027460BA62FB623B1C46331A886A4B9A4207D8BA
S2140274703B1C46333A1C4632128867498A1A1A80DF
S2140274803A1C46323B1C263312881B889A421CD36F
S2140274903B1C3E331A883B1C3E3301321A803B1C8F
S2140274A042331A883B1C423301321A803B1C463355
S2140274B01B889BB23B6000237B603A6B7B6B386811
S2140274C0796812184B413A637B633B1C44331A8833
S2140274D03B1C443301321A803B1C44331A884F4B00
S2140274E09A4294D9B86AF96AFCF7BAF9041C3B1CAA
S2140274F040331B88181CFDF795F8031C201C191C2A
S214027500FCF790FB031C3B62386AFEF7D1FE031CB5
S2140275100C1C181C211C3C4A3C4BFEF75FF8031C53
S2140275200C1C181C211CFEF715FF021C3B691A6076
S2140275303B4B1B68181C0021FCF7F6F8031C002BBB
S2140275400BD03B691A68364B1B68101C191CFCF7DB
S2140275504DFD031C1A1C3B691A603B6B7A6B134386
S21402756044D0386B796BFCF77BF9041C3B1C423326
S2140275701B88181CFDF756F8031C201C191CFCF768
S21402758051FB031CFB61F869FEF792FE031C0C1C00
S214027590181C211C1C4A1D4BFEF720F8031C0C1C51
S2140275A0181C211CFEF7D6FE021C7B691A601C4BB7
S2140275B01B68181C0021FCF7B7F8031C002B0BD025
S2140275C07B691A68164B1B68101C191CFCF70EFD0B
S2140275D0031C1A1C7B691A603B1C3E331B88181C52
S2140275E0FDF720F8021CFB681A6005E07B690022A2
S2140275F01A60FB6800221A60BD4613B0F0BDC04692
S214027600000000C0E03FDF404CDF4F355E62003FC7
S21402761084810300FF7C000000FAFFFF1F4E00007B
S2140276203CE5FF1FC046C04680B500AFBFF34F8F94
S214027630034B044ADA60BFF34F8FC046FDE7C046ED
S21402764000ED00E00400FA0580B582B000AF786075
S2140276507A68A02301214942D150BD4602B080BDBE
S21402766080B584B000AF786039603B68FB60FB6829
S2140276709B681B78181C01F0F3FBBD4604B080BD66
S21402768080B584B000AF786039603B68FB60FB6809
S2140276905B685A1CFB685A60FB68DB685A1EFB680C
S2140276A0DA60FB68DB68002B02D1034B01221A70FA
S2140276B0BD4604B080BDC046CCE9FF1F80B500AF12
S2140276C0012009F0D5FFBD4680BDC04680B500AF9B
S2140276D0002009F0CDFFBD4680BDC04680B500AF94
S2140276E0002008F0D3FD03F033FDBD4680BDC04642
S2140276F080B584B000AF786039603B68FB60FB6899
S2140277009B681B78181C00F09FFEBD4604B080BD27
S21402771080B584B000AF786039603B68FB60FB6878
S2140277205B685A1CFB685A60FB68DB685A1EFB687B
S214027730DA60FB68DB68002B02D1034B01221A7069
S214027740BD4604B080BDC046F0E7FF1F80B500AF5F
S214027750034B181C04F05EFDFFF766FFFEE7C0460B
S214027760E862030080B500AF024B181C04F052FD1D
S214027770BD4680BDF462030080B500AF044B181C02
S214027780FFF762FF034B181C0AF056FCBD4680BD8D
S21402779000B004400703000080B500AF214B012271
S2140277A01A60214B181C05F091FC031C002B0CD010
S2140277B01E4B181C0AF024FC1D4B181C04F02AFD54
S2140277C0194B181C05F09AFC29E01A4B181C05F0F8
S2140277D07DFC031C002B0ED003F080FD164B181CFC
S2140277E00AF00EFC154B181C04F014FD114B181C65
S2140277F005F084FC13E0124B181C05F067FC031C12
S214027800002B08D00F4B181C04F004FD0C4B181C60
S21402781005F074FC03E00C4B181C04F0FBFCBD46A0
S21402782080BDC0465CE5FF1F080004020703000097
S214027830046303000900050209020000286303002E
S21402784007000302486303006063030080B500AFCD
S214027850BD4680BD80B500AFBD4680BD80B582B056
S21402786000AF294B284AD268802109020A43DA600F
S214027870264B181C0AF09CFC254A264B101C80211D
S2140278801A1C0AF013FC031C1A1C204B1A6222490B
S214027890224B80225200081C111C1A1C0AF006FCFD
S2140278A0031C1A1C1E4B1A60FB1D00221A70174A74
S2140278B0FB1D101C191C0AF065FCFB1D1B78022B15
S2140278C006D0042B09D0174B181C04F0A3FC09E0C1
S2140278D0154B181C04F09EFC04E0144B181C04F014
S2140278E099FCC046094A3B1C101C191C0AF0DEFC17
S2140278F03B680F4A101C191C04F08CFC0023181C51
S214027900BD4602B080BDC046003000F07CE4FF1FDA
S21402791068E7FF1F5578020064E6FF1FD1200300C8
S21402792000E2FF1F7863030094630300C46303004E
S214027930F463030090B58DB002AF786000237B62DB
S214027940B823DB011A683B1C08331A603B1C083359
S2140279507A685A603A4B1A683B1C08339A60394B6D
S2140279601A683B1C0833DA60374B1A683B1C08332C
S2140279701A61FFF773FF354B181C04F04BFC05F039
S214027980A7FC334B1B683348B822D1018022D200B1
S2140279900AF0B6FB031C7B627B6A002B07D02E4ADA
S2140279A07B6A101C191C04F035FC7B6A43E005F068
S2140279B079FC3B1C1E33802252001A8000233B6255
S2140279C01AE03B6ADCB2224B18682249B823DA0175
S2140279D03B1C1E331B880090081C111C1A1C231CFF
S2140279E00AF03CFC031C7B627B6A002B01D07B6A9C
S2140279F021E03B6A01333B623B6A012BE1D9174A1D
S214027A007B6A101C191C04F005FC114B18681149FE
S214027A10B823DA013B1C08330090081C111C142200
S214027A200AF0CCFB031C7B620D4A7B6A101C191CF5
S214027A3004F0F0FB7B6A181CBD460BB090BDC04636
S214027A40085C00000C5C0000105C00002064030070
S214027A5000E2FF1F7CE4FF1F486403007464030017
S214027A609864030080B582B000AF7860BD4602B06D
S214027A7080BDC04680B582B000AF7860124B00224F
S214027A801A7003F051FB7B68181C03F01FF801E024
S214027A9001F036FA0C4B1B78002B04D103F030FBB6
S214027AA0031C092BF4D9084B1B78002B07D0064B76
S214027AB000221A7064200BF079FC012300E00023F8
S214027AC0181CBD4602B080BD4EE5FF1F80B500AF54
S214027AD00A4B181CFFF7CEFF031C002B0AD0084BDC
S214027AE0181CFFF7C7FF031C002B01D0054B02E052
S214027AF0002300E00023181CBD4680BDBC640300C2
S214027B00C464030048E9FF1F80B500AF064B181C8B
S214027B10FFF7B0FF031C002B01D0044B00E000234C
S214027B20181CBD4680BDC046CC64030028E9FF1F72
S214027B3080B58EB000AFCF4B1B78112B00D943E334
S214027B409A00CD4BD3181B689F46CC4B0022DA71A5
S214027B50CB4B181C04F05EFB03F034FCC94B181C1C
S214027B6004F058FBFA235B00181C0BF01FFCC64BF4
S214027B70181CFFF77FFF031C002B03D0BD4B01220E
S214027B801A7025E324E3C14B181CFFF773FFB94BA9
S214027B9002221A701CE3BE4B181CFFF76BFFB54B94
S214027BA003221A7014E3BB4B181C04F033FBBA4BC7
S214027BB0181CFFF75FFFAF4B04221A7008E3AF4BA7
S214027BC000221A70B54B00221A7003F0ADFAB44BBD
S214027BD0181C02F07BFF01E001F092F9A74B1B781C
S214027BE0002B08D1AD4B1B78002B04D103F088FA8A
S214027BF0031C092BF0D9A14B1B78002B0DD0A94BE7
S214027C0000221A7064200BF0D1FBA74B181C04F05C
S214027C1001FB984B05221A701CE0A24B1B78DBB2C4
S214027C201D2B0AD99F4B00221A70A04B181C04F079
S214027C30F1FA904B11221A700CE09A4B1B78DBB2C9
S214027C400133DAB2974B1A70FA239B00181C0BF01A
S214027C50ADFBBDE2BCE2894B00225A708F4B00227C
S214027C601A7003F061FA924B181C02F02FFF01E023
S214027C7001F046F9814B5B78002B08D1874B1B78C5
S214027C80002B04D103F03CFA031C092BF0D97B4BE2
S214027C905B78002B0DD0834B00221A7064200BF009
S214027CA085FB844B181C04F0B5FA724B06221A7038
S214027CB018E07C4B1B78DBB21D2B06D9794B0022D1
S214027CC01A706C4B11221A700CE0764B1B78DBB2E2
S214027CD00133DAB2734B1A70FA239B00181C0BF0AE
S214027CE065FB75E274E2654B00229A706B4B0022CC
S214027CF01A7003F019FA704B181C02F0E7FE01E046
S214027D0001F0FEF85D4B9B78002B08D1634B1B7885
S214027D10002B04D103F0F4F9031C092BF0D9574BBE
S214027D209B78002B0DD05F4B00221A7064200BF05C
S214027D303DFB624B181C04F06DFA4E4B07221A707C
S214027D4018E0584B1B78DBB21D2B06D9554B002288
S214027D501A70484B11221A700CE0524B1B78DBB299
S214027D600133DAB24F4B1A70FA239B00181C0BF041
S214027D701DFB2DE22CE2524B181C04F04BFA3F4B33
S214027D800022DA703D4B00221A71444B00221A7010
S214027D9003F0CAF94B4B181C02F098FE01E001F002
S214027DA0AFF8364BDB78002B0CD1344B1B79002B0B
S214027DB008D13A4B1B78002B04D103F0A1F9031C1F
S214027DC0092BECD92D4BDB78002B06D064200BF068
S214027DD0EDFA284B08221A7023E0284B1B79002B59
S214027DE006D064200BF0E2FA224B0A221A7018E040
S214027DF02C4B1B78DBB21D2B06D92A4B00221A709D
S214027E001C4B11221A700CE0264B1B78DBB2013396
S214027E10DAB2244B1A70FA239B00181C0BF0C6FA2F
S214027E20D6E1D5E1284B181C04F0F4F9274B181CB0
S214027E30FFF720FE0F4B0A221A70C9E1244B181CCA
S214027E4004F0E8F9234B181CFFF714FE094B0A222C
S214027E501A70BDE1204B181C04F0DCF91F4B181CED
S214027E60FFF708FE0F4B00221A70024B0B221A7005
S214027E70AEE1C04641E5FF1FB07D0300E8E7FF1F05
S214027E80D4640300F0640300BC64030008650300C6
S214027E901465030024650300486503004FE5FF1FD1
S214027EA05465030040E5FF1F60650300806503001C
S214027EB0A4650300B0650300C4650300D065030033
S214027EC0E86503001C6603002C6603005C6603007C
S214027ED080660300AC660300BC660300E46603002B
S214027EE0BE4B181C04F096F9BD4B0022DA70BC4B50
S214027EF000221A71BB4B00221A7003F015F9BA4B16
S214027F00181C02F0E3FD01E000F0FAFFB44B1B7907
S214027F10002B08D1B34B1B78002B04D103F0F0F8EA
S214027F20031C092BF0D9AE4B1B79002B06D064201C
S214027F300BF03CFAAD4B0C221A7018E0AC4B1B78D7
S214027F40DBB21D2B06D9AA4B00221A70A74B1122B0
S214027F501A700CE0A64B1B78DBB20133DAB2A44BE4
S214027F601A70FA239B00181C0BF020FA30E12FE15E
S214027F70A04B181C04F04EF99F4B181CFFF77AFD15
S214027F809E4B181C04F046F9984B0D221A701FE1FE
S214027F909B4B181CFFF76EFD9A4B181CFFF76AFDE9
S214027FA0994B181CFFF766FD8D4B0122DA71974B31
S214027FB0181C04F02FF98E4B00221A70944B181CD2
S214027FC004F028F9894B0E221A7001E1914B002227
S214027FD01A70834B00225A7103F0A6F88E4B181CB7
S214027FE002F0E4F801E000F08BFF8A4B1B78002BCE
S214027FF004D103F085F8031C092BF4D9854B002223
S2140280001A7003F091F8854B181C04F003F9844BA0
S214028010181C04F0FFF803F057F9031C032B03D1D6
S214028020724B10221A70D3E0704B0F221A70CFE0F8
S21402803000F066FF6A4B5B79002B0ED0684B00227D
S2140280405A71784B181C04F0E5F8774B181C04F0AC
S214028050E1F8664B10221A7012E003F051F8031C86
S214028060322B0DD9624B1B78DBB20133DAB2604B8E
S2140280701A706E4B181C04F0CDF85C4B0E221A7068
S2140280805B4B1B78DBB2092B0AD9594B00221A70BC
S214028090674B181C04F0BEF8544B11221A7097E076
S2140280A096E05C4B00221A7003F03EF84C4B00221E
S2140280B09A71604B1A68604B1B68381D5F490DF059
S2140280C0CBF83B1D181C02F001FD01E000F018FF82
S2140280D0504B1B78002B08D1414B9B79002B04D1C7
S2140280E003F00EF8031C092BF0D94A4B00221A7033
S2140280F03B4B00229A71484B1B8D1A1C504B1B6837
S2140281009A4232D103F05AFE03F064FE031C4D4A33
S214028110101C191C04F07EF84B4B181C04F07AF85D
S214028120324B11221A70494B9B69012B06D1484BE0
S214028130181C04F06FF8454B00229A61434B1B68EB
S214028140012B06D1434B181C04F064F83F4B002267
S2140281501A603E4B9B68012B21D13F4B181C04F042
S21402816059F83A4B00229A6032E003F0ADF8031C4D
S214028170032B14D1354B9B68012B06D1374B181CA9
S21402818004F048F8314B00229A6003F017FE174BB2
S21402819011221A70324B181C04F03CF818E017E053
S2140281A003F092F8031C032B0AD10D4BDB79002B4C
S2140281B006D00A2000F0DAFC0C4B0E221A7007E0FA
S2140281C00A4B00221A7003E0084B11221A70C046AE
S2140281D0064B1B78181CBD460EB080BDF466030025
S2140281E0E8E7FF1F4FE5FF1F1C66030041E5FF1F80
S2140281F040E5FF1F20670300406703004C6703004B
S2140282006C670300786703008C670300AC670300A3
S214028210CC6703004EE5FF1FD4E9FF1FE4670300A7
S214028220F46703000C680300286803004068030034
S2140282306C68030020E9FF1F24E9FF1FA068030003
S2140282401CE9FF1FB0680300DC68030020E6FF1F7E
S214028250EC6803001C690300446903007C690300A0
S214028260BC690300B0B582B000AF021C3960FB1DCA
S2140282701A70FB1D1B787F2B32D93049FB1D1B78E9
S2140282801A1C0F231340083B98082C4AFB1D1B7828
S2140282901C1C0F232340083B9B0806339B00D31865
S2140282A05B68FA1D1278141C03222240D200FF24B7
S2140282B0251C95402A1CD2431A403B689C01FF238A
S2140282C01C40FB1D1B781D1C03232B40DB00251CBA
S2140282D09D402B1C1A43831D9B00CB185A6029E035
S2140282E0174BFA1D127852B292081549F81D0078FB
S2140282F040B28008C03080004158F81D0078041C47
S21402830003202040C000FF24251C8540281CC043B3
S214028310084039688C01FF210C40F91D09780D1CB4
S21402832003212940C900251C8D40291C0143C03267
S2140283309200D150BD4602B0B0BDC04600ED00E08E
S21402834000E100E080B582B002AF214B00221A7035
S214028350204B00221A70204B00221A601F4B00226C
S2140283601A701F4B00221A701E4B00221A700D2024
S2140283700121FFF777FF1C4B0D20191C05F0D6FADA
S2140283801A4A1B4B0120111C1A1C08F08FF8194BB5
S214028390002200920120191C0022002308F05EF938
S2140283A0154B0120191C0022002308F08BF9134BF1
S2140283B000221A70114B00225A70104B00225A608B
S2140283C00F4B0120191C012208F0C4F9BD4680BDDE
S2140283D058E6FF1F60E6FF1F5CE6FF1FF8E7FF1F79
S2140283E049E5FF1F48E5FF1FE92E0300B8ECFF1F13
S2140283F05C810300F176020011770200F0E7FF1FAE
S214028400F1E7FF1F80B500AF012008F0CDF8BD46AA
S21402841080BDC04680B582B000AF78603960094B37
S21402842000221A703B687A680120111C1A1C08F098
S21402843069F9C046034B1B78DBB2002BFAD0BD4667
S21402844002B080BDF0E7FF1F80B582B000AF786053
S2140284507B680D2B02D07B680A2B10D11D4B1B7834
S214028460002B0BD11C4B1B781C4A0021D1541A4BF3
S21402847000221A70174B01221A7027E026E07B684A
S214028480082B0FD1144B1B78002B1FD0124B1B78D6
S214028490013BDAB2104B1A700F4B1B780F4A0021C1
S2140284A0D15413E00C4B1B78FF2B0CD00A4B1B78D5
S2140284B07A68D1B2094AD154074B1B780133DAB233
S2140284C0054B1A7002E0044B00221A70BD4602B039
S2140284D080BDC04649E5FF1F48E5FF1FF8E7FF1FBE
S2140284E080B582B000AF00237B6007E0084A7B6855
S2140284F0D31800221A707B6801337B607B68FE2BE0
S214028500F4DD044B00221A70BD4602B080BDC046A0
S214028510F8E7FF1F48E5FF1F90B583B000AF0023C2
S2140285207B602A4B1B78002B01D1002349E0274BA6
S21402853000221A703BE026497A68131C5B009B18DF
S2140285409B005C5822497A68131C5B009B189B00B0
S2140285505B58181C0CF0EDFE031C1E4A201C111C56
S2140285601A1C0CF0EDFE031C002B1DD1194B181C17
S2140285700CF0DFFE041C16497A68131C5B009B187D
S2140285809B005B58181C0CF0D4FE031C9C420BD3B9
S2140285900F497A68131C5B009B189B00CB180833A4
S2140285A01B68984700230CE07B6801337B60084910
S2140285B07A68131C5B009B189B005B58002BBAD191
S2140285C00123181CBD4603B090BDC04649E5FF1FF7
S2140285D004E3FF1FF8E7FF1F80B58AB000AF78609C
S2140285E000237B6200233B627B68181C2C210CF064
S2140285F08CFE031C0133FB61FB69181C2C210CF05A
S21402860084FE031C0133BB61BB691B785BB2532B30
S21402861006D17B6A5A1C7A623F4A2D21D1540DE05C
S2140286200CE03B6A5A1C3A62FA69D3181A783A493D
S2140286307B6ACB181A707B6A01337B627B6A0B2BD0
S214028640EFD9354B181C2C210CF05FFE031C7B6106
S2140286507B6900221A70BB69181C2C210CF055FE8F
S214028660031C01333B613B69181C2C210CF04DFEA8
S214028670031C0133BB6100237B6200233B62BB69A0
S2140286801B785BB2572B06D17B6A5A1C7A62224A47
S2140286902D21D1540DE00CE03B6A5A1C3A623A692D
S2140286A0D3181A781D497B6ACB181A707B6A013375
S2140286B07B627B6A0B2BEFD9184B181C2C210CF013
S2140286C024FE031C7B617B6900221A70BB69181C9E
S2140286D02C210CF01AFE031C0133FB6000237B6284
S2140286E00AE07B6AFA68D3181A780D497B6ACB18B7
S2140286F01A707B6A01337B627B6A0B2BF1D9084BBB
S214028700181C2E210CF001FE031C7B617B690022E3
S2140287101A70BD460AB080BDF8E8FF1F04E9FF1FC5
S21402872010E9FF1F80B584B000AF0023BB602A4962
S2140287302A4A2B4B081CFF210CF05CFD294B012218
S2140287401A70254BFB60284A234B101C191C03F099
S21402875061FDFB685A1CFA601B785BB22C2B02D1B7
S214028760BB680133BB60BB68052BF2D9F8681F49AA
S214028770FA1DBB1D0CF092FDFB1D1B785BB2412B54
S2140287801CD1BB1D1B785BB2442B04D0BB1D1B78CF
S2140287905BB2412B12D1164B181C03F03BFD154B56
S2140287A001221A70144B1B78DBB20133DAB2124B79
S2140287B01A70094B181CFFF70FFF09E00F4B181C25
S2140287C003F028FD0B4B00221A700B4B00221A7086
S2140287D0BD4604B080BDC04604E2FF1F846B0300A2
S2140287E0F8E7FF1F60E6FF1F886B0300A46B030019
S2140287F0AC6B03004BE5FF1F58E6FF1FD06B030070
S21402880080B59AB000AF0849084A3B1D081C111CE7
S2140288101A1C0CF043FD064A034B101C191C03F0ED
S214028820F9FCBD461AB080BDF8E7FF1F046C0300D2
S2140288300C6C030080B500AF024B01221A70BD46D5
S21402884080BDC0464AE5FF1F80B5E4B000AF786041
S214028850BF4BC8204000C019C3181970BD4BC821B1
S2140288604900C919CB181A700023BC225200D2192B
S21402887013600023C6204000C0190360B64BC8210F
S2140288804900C919CB181A1CAF235B00101C002123
S2140288901A1C0CF0F8FB0023C4225200D2191360F3
S2140288A0C4204000C01903685A1CC4214900C919D3
S2140288B00A60A94AC8204000C0198218B521D154BE
S2140288C0C4214900C9190B685A1CC4204000C019AB
S2140288D00260A14AC8214900C9198A186221D154E6
S2140288E09E4B7A689200D3580433181C2D210CF044
S2140288F00CFD031CBC225200D2191360BC2040009F
S214028900C0190368002B0CD0BC214900C9190A689B
S214028910924B79688900CB58D31AC6225200D219D4
S2140289201360BC204000C01903680233C22149000C
S214028930C9190B600023C0225200D219136000230B
S214028940BE204000C0190360854BC8214900C919E2
S214028950CA18844B111C1A1C0623081C111C1A1C4C
S2140289600CF088FBABE00023FB60C2225200D21957
S21402897013681A787A4BC8204000C019C3189A7038
S214028980C2214900C9190B685A78754BC8204000A5
S214028990C019C318DA70391C1031734A3B1C0C33E9
S2140289A0081C111C1A1C0CF079FC7B68002B3DD1AC
S2140289B0C4214900C9190B68082B11D1664BC8207F
S2140289C04000C019C218C4214900C9190B68D3183F
S2140289D05F4AC8204000C019821812781A7032E026
S2140289E0C4214900C9190B68122B11D15A4BC82051
S2140289F04000C019C218C4214900C9190B68D3180F
S214028A00544AC8204000C019821812781A701AE018
S214028A10FB68DAB2504BC8204000C019C118C42007
S214028A204000C0190368CB181A700CE0FB68DAB273
S214028A30494BC8204000C019C118C4204000C019C4
S214028A400368CB181A70444BC8214900C919CA18C2
S214028A50C4204000C0190368D3181B78C0214900FF
S214028A60C9190A68D318C0225200D2191360BE234D
S214028A705B00DB191A68C0204000C0190368D318CF
S214028A80BE214900C9190B60C4225200D2191368CC
S214028A900133C4204000C0190360C6214900C91929
S214028AA00B680333C6225200D2191360C22040005C
S214028AB0C01903680333C2214900C9190B60274B4A
S214028AC07A689200D358181C0CF033FC031CDA1E8A
S214028AD0C6204000C01903689A4200DD43E7C4215D
S214028AE04900C9190B685A1CC4204000C01902600C
S214028AF0C0214900C9190A68D1B2174AC8204000E5
S214028B00C0198218D154C4214900C9190B685A1CCD
S214028B10C4204000C0190260BE214900C9190A6873
S214028B20D1B20D4AC8204000C0198218D1543A1C4E
S214028B301832C4214900C9190B68101C191CFFF70A
S214028B4069FC32200AF032FCBD4664B080BDC046E5
S214028B5073FEFFFF72FEFFFF88FEFFFF34E3FF1F78
S214028B6080FEFFFF286C0300246C030090B585B0DE
S214028B7000AF78607B68FA2292005343FB60284B72
S214028B805B78DBB201225340DBB2002B0AD0254BC6
S214028B90181C03F03FFB02F081FCFA239B00181C12
S214028BA00AF004FC204B00221A60204B00221A70A6
S214028BB026E0FFF7B1FC1D4B1B78DBB2002B0AD078
S214028BC01B4B1B78002B06D0184B00221A70194B31
S214028BD0181C03F01FFBFA68134B1B689A4207D255
S214028BE0154B181C03F016FB0F4B00221A6010E000
S214028BF00D4B1B685A1C0C4B1A6001200AF0D6FB60
